{
    "_format": "hh-sol-artifact-1",
    "contractName": "RoboPunkNFT",
    "sourceName": "contracts/RoboPunkNFT.sol",
    "abi": [
        {
            "inputs": [],
            "stateMutability": "payable",
            "type": "constructor"
        },
        {
            "anonymous": false,
            "inputs": [
                {
                    "indexed": true,
                    "internalType": "address",
                    "name": "owner",
                    "type": "address"
                },
                {
                    "indexed": true,
                    "internalType": "address",
                    "name": "approved",
                    "type": "address"
                },
                {
                    "indexed": true,
                    "internalType": "uint256",
                    "name": "tokenId",
                    "type": "uint256"
                }
            ],
            "name": "Approval",
            "type": "event"
        },
        {
            "anonymous": false,
            "inputs": [
                {
                    "indexed": true,
                    "internalType": "address",
                    "name": "owner",
                    "type": "address"
                },
                {
                    "indexed": true,
                    "internalType": "address",
                    "name": "operator",
                    "type": "address"
                },
                {
                    "indexed": false,
                    "internalType": "bool",
                    "name": "approved",
                    "type": "bool"
                }
            ],
            "name": "ApprovalForAll",
            "type": "event"
        },
        {
            "anonymous": false,
            "inputs": [
                {
                    "indexed": true,
                    "internalType": "address",
                    "name": "previousOwner",
                    "type": "address"
                },
                {
                    "indexed": true,
                    "internalType": "address",
                    "name": "newOwner",
                    "type": "address"
                }
            ],
            "name": "OwnershipTransferred",
            "type": "event"
        },
        {
            "anonymous": false,
            "inputs": [
                {
                    "indexed": true,
                    "internalType": "address",
                    "name": "from",
                    "type": "address"
                },
                {
                    "indexed": true,
                    "internalType": "address",
                    "name": "to",
                    "type": "address"
                },
                {
                    "indexed": true,
                    "internalType": "uint256",
                    "name": "tokenId",
                    "type": "uint256"
                }
            ],
            "name": "Transfer",
            "type": "event"
        },
        {
            "inputs": [
                {
                    "internalType": "address",
                    "name": "to",
                    "type": "address"
                },
                {
                    "internalType": "uint256",
                    "name": "tokenId",
                    "type": "uint256"
                }
            ],
            "name": "approve",
            "outputs": [],
            "stateMutability": "nonpayable",
            "type": "function"
        },
        {
            "inputs": [
                {
                    "internalType": "address",
                    "name": "owner",
                    "type": "address"
                }
            ],
            "name": "balanceOf",
            "outputs": [
                {
                    "internalType": "uint256",
                    "name": "",
                    "type": "uint256"
                }
            ],
            "stateMutability": "view",
            "type": "function"
        },
        {
            "inputs": [
                {
                    "internalType": "uint256",
                    "name": "tokenId",
                    "type": "uint256"
                }
            ],
            "name": "getApproved",
            "outputs": [
                {
                    "internalType": "address",
                    "name": "",
                    "type": "address"
                }
            ],
            "stateMutability": "view",
            "type": "function"
        },
        {
            "inputs": [
                {
                    "internalType": "address",
                    "name": "owner",
                    "type": "address"
                },
                {
                    "internalType": "address",
                    "name": "operator",
                    "type": "address"
                }
            ],
            "name": "isApprovedForAll",
            "outputs": [
                {
                    "internalType": "bool",
                    "name": "",
                    "type": "bool"
                }
            ],
            "stateMutability": "view",
            "type": "function"
        },
        {
            "inputs": [],
            "name": "isPublicMintEnable",
            "outputs": [
                {
                    "internalType": "bool",
                    "name": "",
                    "type": "bool"
                }
            ],
            "stateMutability": "view",
            "type": "function"
        },
        {
            "inputs": [],
            "name": "maxPerWallet",
            "outputs": [
                {
                    "internalType": "uint256",
                    "name": "",
                    "type": "uint256"
                }
            ],
            "stateMutability": "view",
            "type": "function"
        },
        {
            "inputs": [],
            "name": "maxSupply",
            "outputs": [
                {
                    "internalType": "uint256",
                    "name": "",
                    "type": "uint256"
                }
            ],
            "stateMutability": "view",
            "type": "function"
        },
        {
            "inputs": [
                {
                    "internalType": "uint256",
                    "name": "quantity_",
                    "type": "uint256"
                }
            ],
            "name": "mint",
            "outputs": [],
            "stateMutability": "payable",
            "type": "function"
        },
        {
            "inputs": [],
            "name": "mintPrice",
            "outputs": [
                {
                    "internalType": "uint256",
                    "name": "",
                    "type": "uint256"
                }
            ],
            "stateMutability": "view",
            "type": "function"
        },
        {
            "inputs": [],
            "name": "name",
            "outputs": [
                {
                    "internalType": "string",
                    "name": "",
                    "type": "string"
                }
            ],
            "stateMutability": "view",
            "type": "function"
        },
        {
            "inputs": [],
            "name": "owner",
            "outputs": [
                {
                    "internalType": "address",
                    "name": "",
                    "type": "address"
                }
            ],
            "stateMutability": "view",
            "type": "function"
        },
        {
            "inputs": [
                {
                    "internalType": "uint256",
                    "name": "tokenId",
                    "type": "uint256"
                }
            ],
            "name": "ownerOf",
            "outputs": [
                {
                    "internalType": "address",
                    "name": "",
                    "type": "address"
                }
            ],
            "stateMutability": "view",
            "type": "function"
        },
        {
            "inputs": [],
            "name": "renounceOwnership",
            "outputs": [],
            "stateMutability": "nonpayable",
            "type": "function"
        },
        {
            "inputs": [
                {
                    "internalType": "address",
                    "name": "from",
                    "type": "address"
                },
                {
                    "internalType": "address",
                    "name": "to",
                    "type": "address"
                },
                {
                    "internalType": "uint256",
                    "name": "tokenId",
                    "type": "uint256"
                }
            ],
            "name": "safeTransferFrom",
            "outputs": [],
            "stateMutability": "nonpayable",
            "type": "function"
        },
        {
            "inputs": [
                {
                    "internalType": "address",
                    "name": "from",
                    "type": "address"
                },
                {
                    "internalType": "address",
                    "name": "to",
                    "type": "address"
                },
                {
                    "internalType": "uint256",
                    "name": "tokenId",
                    "type": "uint256"
                },
                {
                    "internalType": "bytes",
                    "name": "data",
                    "type": "bytes"
                }
            ],
            "name": "safeTransferFrom",
            "outputs": [],
            "stateMutability": "nonpayable",
            "type": "function"
        },
        {
            "inputs": [
                {
                    "internalType": "address",
                    "name": "operator",
                    "type": "address"
                },
                {
                    "internalType": "bool",
                    "name": "approved",
                    "type": "bool"
                }
            ],
            "name": "setApprovalForAll",
            "outputs": [],
            "stateMutability": "nonpayable",
            "type": "function"
        },
        {
            "inputs": [
                {
                    "internalType": "string",
                    "name": "baseTokenUri_",
                    "type": "string"
                }
            ],
            "name": "setBaseTokenUri",
            "outputs": [],
            "stateMutability": "nonpayable",
            "type": "function"
        },
        {
            "inputs": [
                {
                    "internalType": "bool",
                    "name": "isPublicMintEnabled_",
                    "type": "bool"
                }
            ],
            "name": "setIsPublicMintEnabled",
            "outputs": [],
            "stateMutability": "nonpayable",
            "type": "function"
        },
        {
            "inputs": [
                {
                    "internalType": "bytes4",
                    "name": "interfaceId",
                    "type": "bytes4"
                }
            ],
            "name": "supportsInterface",
            "outputs": [
                {
                    "internalType": "bool",
                    "name": "",
                    "type": "bool"
                }
            ],
            "stateMutability": "view",
            "type": "function"
        },
        {
            "inputs": [],
            "name": "symbol",
            "outputs": [
                {
                    "internalType": "string",
                    "name": "",
                    "type": "string"
                }
            ],
            "stateMutability": "view",
            "type": "function"
        },
        {
            "inputs": [
                {
                    "internalType": "uint256",
                    "name": "tokenId_",
                    "type": "uint256"
                }
            ],
            "name": "tokenURI",
            "outputs": [
                {
                    "internalType": "string",
                    "name": "",
                    "type": "string"
                }
            ],
            "stateMutability": "view",
            "type": "function"
        },
        {
            "inputs": [],
            "name": "totalSupply",
            "outputs": [
                {
                    "internalType": "uint256",
                    "name": "",
                    "type": "uint256"
                }
            ],
            "stateMutability": "view",
            "type": "function"
        },
        {
            "inputs": [
                {
                    "internalType": "address",
                    "name": "from",
                    "type": "address"
                },
                {
                    "internalType": "address",
                    "name": "to",
                    "type": "address"
                },
                {
                    "internalType": "uint256",
                    "name": "tokenId",
                    "type": "uint256"
                }
            ],
            "name": "transferFrom",
            "outputs": [],
            "stateMutability": "nonpayable",
            "type": "function"
        },
        {
            "inputs": [
                {
                    "internalType": "address",
                    "name": "newOwner",
                    "type": "address"
                }
            ],
            "name": "transferOwnership",
            "outputs": [],
            "stateMutability": "nonpayable",
            "type": "function"
        },
        {
            "inputs": [
                {
                    "internalType": "address",
                    "name": "",
                    "type": "address"
                }
            ],
            "name": "walletMints",
            "outputs": [
                {
                    "internalType": "uint256",
                    "name": "",
                    "type": "uint256"
                }
            ],
            "stateMutability": "view",
            "type": "function"
        },
        {
            "inputs": [],
            "name": "withdraw",
            "outputs": [],
            "stateMutability": "nonpayable",
            "type": "function"
        },
        {
            "inputs": [],
            "name": "withdrawWallet",
            "outputs": [
                {
                    "internalType": "address payable",
                    "name": "",
                    "type": "address"
                }
            ],
            "stateMutability": "view",
            "type": "function"
        }
    ],
    "bytecode": "0x60806040526040518060400160405280600981526020017f526f626f50756e6b7300000000000000000000000000000000000000000000008152506040518060400160405280600281526020017f525000000000000000000000000000000000000000000000000000000000000081525081600090816200008191906200042b565b5080600190816200009391906200042b565b505050620000b6620000aa620000e360201b60201c565b620000eb60201b60201c565b66470de4df82000060078190555060006008819055506103e86009819055506003600a8190555062000512565b600033905090565b6000600660009054906101000a900473ffffffffffffffffffffffffffffffffffffffff16905081600660006101000a81548173ffffffffffffffffffffffffffffffffffffffff021916908373ffffffffffffffffffffffffffffffffffffffff1602179055508173ffffffffffffffffffffffffffffffffffffffff168173ffffffffffffffffffffffffffffffffffffffff167f8be0079c531659141344cd1fd0a4f28419497f9722a3daafe3b4186f6b6457e060405160405180910390a35050565b600081519050919050565b7f4e487b7100000000000000000000000000000000000000000000000000000000600052604160045260246000fd5b7f4e487b7100000000000000000000000000000000000000000000000000000000600052602260045260246000fd5b600060028204905060018216806200023357607f821691505b602082108103620002495762000248620001eb565b5b50919050565b60008190508160005260206000209050919050565b60006020601f8301049050919050565b600082821b905092915050565b600060088302620002b37fffffffffffffffffffffffffffffffffffffffffffffffffffffffffffffffff8262000274565b620002bf868362000274565b95508019841693508086168417925050509392505050565b6000819050919050565b6000819050919050565b60006200030c620003066200030084620002d7565b620002e1565b620002d7565b9050919050565b6000819050919050565b6200032883620002eb565b62000340620003378262000313565b84845462000281565b825550505050565b600090565b6200035762000348565b620003648184846200031d565b505050565b5b818110156200038c57620003806000826200034d565b6001810190506200036a565b5050565b601f821115620003db57620003a5816200024f565b620003b08462000264565b81016020851015620003c0578190505b620003d8620003cf8562000264565b83018262000369565b50505b505050565b600082821c905092915050565b60006200040060001984600802620003e0565b1980831691505092915050565b60006200041b8383620003ed565b9150826002028217905092915050565b6200043682620001b1565b67ffffffffffffffff811115620004525762000451620001bc565b5b6200045e82546200021a565b6200046b82828562000390565b600060209050601f831160018114620004a357600084156200048e578287015190505b6200049a85826200040d565b8655506200050a565b601f198416620004b3866200024f565b60005b82811015620004dd57848901518255600182019150602085019450602081019050620004b6565b86831015620004fd5784890151620004f9601f891682620003ed565b8355505b6001600288020188555050505b505050505050565b61381580620005226000396000f3fe60806040526004361061019c5760003560e01c8063715018a6116100ec578063a22cb4651161008a578063d5abeb0111610064578063d5abeb0114610593578063e985e9c5146105be578063f0293fd3146105fb578063f2fde38b146106385761019c565b8063a22cb46514610504578063b88d4fde1461052d578063c87b56dd146105565761019c565b80638da5cb5b116100c65780638da5cb5b1461046957806395652cfa1461049457806395d89b41146104bd578063a0712d68146104e85761019c565b8063715018a6146103fc57806385d178f41461041357806389f0d4011461043e5761019c565b806323b872dd11610159578063453c231011610133578063453c23101461032c5780636352211e146103575780636817c76c1461039457806370a08231146103bf5761019c565b806323b872dd146102c35780633ccfd60b146102ec57806342842e0e146103035761019c565b806301ffc9a7146101a157806306fdde03146101de578063081812fc14610209578063095ea7b31461024657806318160ddd1461026f5780632373ac221461029a575b600080fd5b3480156101ad57600080fd5b506101c860048036038101906101c391906121ad565b610661565b6040516101d591906121f5565b60405180910390f35b3480156101ea57600080fd5b506101f3610743565b60405161020091906122a0565b60405180910390f35b34801561021557600080fd5b50610230600480360381019061022b91906122f8565b6107d5565b60405161023d9190612366565b60405180910390f35b34801561025257600080fd5b5061026d600480360381019061026891906123ad565b61081b565b005b34801561027b57600080fd5b50610284610932565b60405161029191906123fc565b60405180910390f35b3480156102a657600080fd5b506102c160048036038101906102bc9190612443565b610938565b005b3480156102cf57600080fd5b506102ea60048036038101906102e59190612470565b61095d565b005b3480156102f857600080fd5b506103016109bd565b005b34801561030f57600080fd5b5061032a60048036038101906103259190612470565b610a96565b005b34801561033857600080fd5b50610341610ab6565b60405161034e91906123fc565b60405180910390f35b34801561036357600080fd5b5061037e600480360381019061037991906122f8565b610abc565b60405161038b9190612366565b60405180910390f35b3480156103a057600080fd5b506103a9610b42565b6040516103b691906123fc565b60405180910390f35b3480156103cb57600080fd5b506103e660048036038101906103e191906124c3565b610b48565b6040516103f391906123fc565b60405180910390f35b34801561040857600080fd5b50610411610bff565b005b34801561041f57600080fd5b50610428610c13565b6040516104359190612511565b60405180910390f35b34801561044a57600080fd5b50610453610c39565b60405161046091906121f5565b60405180910390f35b34801561047557600080fd5b5061047e610c4c565b60405161048b9190612366565b60405180910390f35b3480156104a057600080fd5b506104bb60048036038101906104b69190612591565b610c76565b005b3480156104c957600080fd5b506104d2610c94565b6040516104df91906122a0565b60405180910390f35b61050260048036038101906104fd91906122f8565b610d26565b005b34801561051057600080fd5b5061052b600480360381019061052691906125de565b610efd565b005b34801561053957600080fd5b50610554600480360381019061054f919061274e565b610f13565b005b34801561056257600080fd5b5061057d600480360381019061057891906122f8565b610f75565b60405161058a91906122a0565b60405180910390f35b34801561059f57600080fd5b506105a8610ff1565b6040516105b591906123fc565b60405180910390f35b3480156105ca57600080fd5b506105e560048036038101906105e091906127d1565b610ff7565b6040516105f291906121f5565b60405180910390f35b34801561060757600080fd5b50610622600480360381019061061d91906124c3565b61108b565b60405161062f91906123fc565b60405180910390f35b34801561064457600080fd5b5061065f600480360381019061065a91906124c3565b6110a3565b005b60007f80ac58cd000000000000000000000000000000000000000000000000000000007bffffffffffffffffffffffffffffffffffffffffffffffffffffffff1916827bffffffffffffffffffffffffffffffffffffffffffffffffffffffff1916148061072c57507f5b5e139f000000000000000000000000000000000000000000000000000000007bffffffffffffffffffffffffffffffffffffffffffffffffffffffff1916827bffffffffffffffffffffffffffffffffffffffffffffffffffffffff1916145b8061073c575061073b82611126565b5b9050919050565b60606000805461075290612840565b80601f016020809104026020016040519081016040528092919081815260200182805461077e90612840565b80156107cb5780601f106107a0576101008083540402835291602001916107cb565b820191906000526020600020905b8154815290600101906020018083116107ae57829003601f168201915b5050505050905090565b60006107e082611190565b6004600083815260200190815260200160002060009054906101000a900473ffffffffffffffffffffffffffffffffffffffff169050919050565b600061082682610abc565b90508073ffffffffffffffffffffffffffffffffffffffff168373ffffffffffffffffffffffffffffffffffffffff1603610896576040517f08c379a000000000000000000000000000000000000000000000000000000000815260040161088d906128e3565b60405180910390fd5b8073ffffffffffffffffffffffffffffffffffffffff166108b56111db565b73ffffffffffffffffffffffffffffffffffffffff1614806108e457506108e3816108de6111db565b610ff7565b5b610923576040517f08c379a000000000000000000000000000000000000000000000000000000000815260040161091a90612975565b60405180910390fd5b61092d83836111e3565b505050565b60085481565b61094061129c565b80600b60006101000a81548160ff02191690831515021790555050565b61096e6109686111db565b8261131a565b6109ad576040517f08c379a00000000000000000000000000000000000000000000000000000000081526004016109a490612a07565b60405180910390fd5b6109b88383836113af565b505050565b6109c561129c565b6000600d60009054906101000a900473ffffffffffffffffffffffffffffffffffffffff1673ffffffffffffffffffffffffffffffffffffffff1647604051610a0d90612a58565b60006040518083038185875af1925050503d8060008114610a4a576040519150601f19603f3d011682016040523d82523d6000602084013e610a4f565b606091505b5050905080610a93576040517f08c379a0000000000000000000000000000000000000000000000000000000008152600401610a8a90612ab9565b60405180910390fd5b50565b610ab183838360405180602001604052806000815250610f13565b505050565b600a5481565b600080610ac8836116a8565b9050600073ffffffffffffffffffffffffffffffffffffffff168173ffffffffffffffffffffffffffffffffffffffff1603610b39576040517f08c379a0000000000000000000000000000000000000000000000000000000008152600401610b3090612b25565b60405180910390fd5b80915050919050565b60075481565b60008073ffffffffffffffffffffffffffffffffffffffff168273ffffffffffffffffffffffffffffffffffffffff1603610bb8576040517f08c379a0000000000000000000000000000000000000000000000000000000008152600401610baf90612bb7565b60405180910390fd5b600360008373ffffffffffffffffffffffffffffffffffffffff1673ffffffffffffffffffffffffffffffffffffffff168152602001908152602001600020549050919050565b610c0761129c565b610c1160006116e5565b565b600d60009054906101000a900473ffffffffffffffffffffffffffffffffffffffff1681565b600b60009054906101000a900460ff1681565b6000600660009054906101000a900473ffffffffffffffffffffffffffffffffffffffff16905090565b610c7e61129c565b8181600c9182610c8f929190612d8e565b505050565b606060018054610ca390612840565b80601f0160208091040260200160405190810160405280929190818152602001828054610ccf90612840565b8015610d1c5780601f10610cf157610100808354040283529160200191610d1c565b820191906000526020600020905b815481529060010190602001808311610cff57829003601f168201915b5050505050905090565b600b60009054906101000a900460ff16610d75576040517f08c379a0000000000000000000000000000000000000000000000000000000008152600401610d6c90612eaa565b60405180910390fd5b60075481610d839190612ef9565b3414610dc4576040517f08c379a0000000000000000000000000000000000000000000000000000000008152600401610dbb90612f87565b60405180910390fd5b60095481600854610dd59190612fa7565b1115610e16576040517f08c379a0000000000000000000000000000000000000000000000000000000008152600401610e0d90613027565b60405180910390fd5b600a5481600e60003373ffffffffffffffffffffffffffffffffffffffff1673ffffffffffffffffffffffffffffffffffffffff16815260200190815260200160002054610e649190612fa7565b1115610ea5576040517f08c379a0000000000000000000000000000000000000000000000000000000008152600401610e9c90613093565b60405180910390fd5b60005b81811015610ef95760006001600854610ec19190612fa7565b905060086000815480929190610ed6906130b3565b9190505550610ee533826117ab565b508080610ef1906130b3565b915050610ea8565b5050565b610f0f610f086111db565b83836117c9565b5050565b610f24610f1e6111db565b8361131a565b610f63576040517f08c379a0000000000000000000000000000000000000000000000000000000008152600401610f5a90612a07565b60405180910390fd5b610f6f84848484611935565b50505050565b6060610f8082611991565b610fbf576040517f08c379a0000000000000000000000000000000000000000000000000000000008152600401610fb690613147565b60405180910390fd5b600c610fca836119d2565b604051602001610fdb929190613272565b6040516020818303038152906040529050919050565b60095481565b6000600560008473ffffffffffffffffffffffffffffffffffffffff1673ffffffffffffffffffffffffffffffffffffffff16815260200190815260200160002060008373ffffffffffffffffffffffffffffffffffffffff1673ffffffffffffffffffffffffffffffffffffffff16815260200190815260200160002060009054906101000a900460ff16905092915050565b600e6020528060005260406000206000915090505481565b6110ab61129c565b600073ffffffffffffffffffffffffffffffffffffffff168173ffffffffffffffffffffffffffffffffffffffff160361111a576040517f08c379a000000000000000000000000000000000000000000000000000000000815260040161111190613313565b60405180910390fd5b611123816116e5565b50565b60007f01ffc9a7000000000000000000000000000000000000000000000000000000007bffffffffffffffffffffffffffffffffffffffffffffffffffffffff1916827bffffffffffffffffffffffffffffffffffffffffffffffffffffffff1916149050919050565b61119981611991565b6111d8576040517f08c379a00000000000000000000000000000000000000000000000000000000081526004016111cf90612b25565b60405180910390fd5b50565b600033905090565b816004600083815260200190815260200160002060006101000a81548173ffffffffffffffffffffffffffffffffffffffff021916908373ffffffffffffffffffffffffffffffffffffffff160217905550808273ffffffffffffffffffffffffffffffffffffffff1661125683610abc565b73ffffffffffffffffffffffffffffffffffffffff167f8c5be1e5ebec7d5bd14f71427d1e84f3dd0314c0f7b2291e5b200ac8c7c3b92560405160405180910390a45050565b6112a46111db565b73ffffffffffffffffffffffffffffffffffffffff166112c2610c4c565b73ffffffffffffffffffffffffffffffffffffffff1614611318576040517f08c379a000000000000000000000000000000000000000000000000000000000815260040161130f9061337f565b60405180910390fd5b565b60008061132683610abc565b90508073ffffffffffffffffffffffffffffffffffffffff168473ffffffffffffffffffffffffffffffffffffffff16148061136857506113678185610ff7565b5b806113a657508373ffffffffffffffffffffffffffffffffffffffff1661138e846107d5565b73ffffffffffffffffffffffffffffffffffffffff16145b91505092915050565b8273ffffffffffffffffffffffffffffffffffffffff166113cf82610abc565b73ffffffffffffffffffffffffffffffffffffffff1614611425576040517f08c379a000000000000000000000000000000000000000000000000000000000815260040161141c90613411565b60405180910390fd5b600073ffffffffffffffffffffffffffffffffffffffff168273ffffffffffffffffffffffffffffffffffffffff1603611494576040517f08c379a000000000000000000000000000000000000000000000000000000000815260040161148b906134a3565b60405180910390fd5b6114a18383836001611aa0565b8273ffffffffffffffffffffffffffffffffffffffff166114c182610abc565b73ffffffffffffffffffffffffffffffffffffffff1614611517576040517f08c379a000000000000000000000000000000000000000000000000000000000815260040161150e90613411565b60405180910390fd5b6004600082815260200190815260200160002060006101000a81549073ffffffffffffffffffffffffffffffffffffffff02191690556001600360008573ffffffffffffffffffffffffffffffffffffffff1673ffffffffffffffffffffffffffffffffffffffff168152602001908152602001600020600082825403925050819055506001600360008473ffffffffffffffffffffffffffffffffffffffff1673ffffffffffffffffffffffffffffffffffffffff16815260200190815260200160002060008282540192505081905550816002600083815260200190815260200160002060006101000a81548173ffffffffffffffffffffffffffffffffffffffff021916908373ffffffffffffffffffffffffffffffffffffffff160217905550808273ffffffffffffffffffffffffffffffffffffffff168473ffffffffffffffffffffffffffffffffffffffff167fddf252ad1be2c89b69c2b068fc378daa952ba7f163c4a11628f55a4df523b3ef60405160405180910390a46116a38383836001611bc6565b505050565b60006002600083815260200190815260200160002060009054906101000a900473ffffffffffffffffffffffffffffffffffffffff169050919050565b6000600660009054906101000a900473ffffffffffffffffffffffffffffffffffffffff16905081600660006101000a81548173ffffffffffffffffffffffffffffffffffffffff021916908373ffffffffffffffffffffffffffffffffffffffff1602179055508173ffffffffffffffffffffffffffffffffffffffff168173ffffffffffffffffffffffffffffffffffffffff167f8be0079c531659141344cd1fd0a4f28419497f9722a3daafe3b4186f6b6457e060405160405180910390a35050565b6117c5828260405180602001604052806000815250611bcc565b5050565b8173ffffffffffffffffffffffffffffffffffffffff168373ffffffffffffffffffffffffffffffffffffffff1603611837576040517f08c379a000000000000000000000000000000000000000000000000000000000815260040161182e9061350f565b60405180910390fd5b80600560008573ffffffffffffffffffffffffffffffffffffffff1673ffffffffffffffffffffffffffffffffffffffff16815260200190815260200160002060008473ffffffffffffffffffffffffffffffffffffffff1673ffffffffffffffffffffffffffffffffffffffff16815260200190815260200160002060006101000a81548160ff0219169083151502179055508173ffffffffffffffffffffffffffffffffffffffff168373ffffffffffffffffffffffffffffffffffffffff167f17307eab39ab6107e8899845ad3d59bd9653f200f220920489ca2b5937696c318360405161192891906121f5565b60405180910390a3505050565b6119408484846113af565b61194c84848484611c27565b61198b576040517f08c379a0000000000000000000000000000000000000000000000000000000008152600401611982906135a1565b60405180910390fd5b50505050565b60008073ffffffffffffffffffffffffffffffffffffffff166119b3836116a8565b73ffffffffffffffffffffffffffffffffffffffff1614159050919050565b6060600060016119e184611dae565b01905060008167ffffffffffffffff811115611a00576119ff612623565b5b6040519080825280601f01601f191660200182016040528015611a325781602001600182028036833780820191505090505b509050600082602001820190505b600115611a95578080600190039150507f3031323334353637383961626364656600000000000000000000000000000000600a86061a8153600a8581611a8957611a886135c1565b5b04945060008503611a40575b819350505050919050565b6001811115611bc057600073ffffffffffffffffffffffffffffffffffffffff168473ffffffffffffffffffffffffffffffffffffffff1614611b345780600360008673ffffffffffffffffffffffffffffffffffffffff1673ffffffffffffffffffffffffffffffffffffffff1681526020019081526020016000206000828254611b2c91906135f0565b925050819055505b600073ffffffffffffffffffffffffffffffffffffffff168373ffffffffffffffffffffffffffffffffffffffff1614611bbf5780600360008573ffffffffffffffffffffffffffffffffffffffff1673ffffffffffffffffffffffffffffffffffffffff1681526020019081526020016000206000828254611bb79190612fa7565b925050819055505b5b50505050565b50505050565b611bd68383611f01565b611be36000848484611c27565b611c22576040517f08c379a0000000000000000000000000000000000000000000000000000000008152600401611c19906135a1565b60405180910390fd5b505050565b6000611c488473ffffffffffffffffffffffffffffffffffffffff1661211e565b15611da1578373ffffffffffffffffffffffffffffffffffffffff1663150b7a02611c716111db565b8786866040518563ffffffff1660e01b8152600401611c939493929190613679565b6020604051808303816000875af1925050508015611ccf57506040513d601f19601f82011682018060405250810190611ccc91906136da565b60015b611d51573d8060008114611cff576040519150601f19603f3d011682016040523d82523d6000602084013e611d04565b606091505b506000815103611d49576040517f08c379a0000000000000000000000000000000000000000000000000000000008152600401611d40906135a1565b60405180910390fd5b805181602001fd5b63150b7a0260e01b7bffffffffffffffffffffffffffffffffffffffffffffffffffffffff1916817bffffffffffffffffffffffffffffffffffffffffffffffffffffffff191614915050611da6565b600190505b949350505050565b600080600090507a184f03e93ff9f4daa797ed6e38ed64bf6a1f0100000000000000008310611e0c577a184f03e93ff9f4daa797ed6e38ed64bf6a1f0100000000000000008381611e0257611e016135c1565b5b0492506040810190505b6d04ee2d6d415b85acef81000000008310611e49576d04ee2d6d415b85acef81000000008381611e3f57611e3e6135c1565b5b0492506020810190505b662386f26fc100008310611e7857662386f26fc100008381611e6e57611e6d6135c1565b5b0492506010810190505b6305f5e1008310611ea1576305f5e1008381611e9757611e966135c1565b5b0492506008810190505b6127108310611ec6576127108381611ebc57611ebb6135c1565b5b0492506004810190505b60648310611ee95760648381611edf57611ede6135c1565b5b0492506002810190505b600a8310611ef8576001810190505b80915050919050565b600073ffffffffffffffffffffffffffffffffffffffff168273ffffffffffffffffffffffffffffffffffffffff1603611f70576040517f08c379a0000000000000000000000000000000000000000000000000000000008152600401611f6790613753565b60405180910390fd5b611f7981611991565b15611fb9576040517f08c379a0000000000000000000000000000000000000000000000000000000008152600401611fb0906137bf565b60405180910390fd5b611fc7600083836001611aa0565b611fd081611991565b15612010576040517f08c379a0000000000000000000000000000000000000000000000000000000008152600401612007906137bf565b60405180910390fd5b6001600360008473ffffffffffffffffffffffffffffffffffffffff1673ffffffffffffffffffffffffffffffffffffffff16815260200190815260200160002060008282540192505081905550816002600083815260200190815260200160002060006101000a81548173ffffffffffffffffffffffffffffffffffffffff021916908373ffffffffffffffffffffffffffffffffffffffff160217905550808273ffffffffffffffffffffffffffffffffffffffff16600073ffffffffffffffffffffffffffffffffffffffff167fddf252ad1be2c89b69c2b068fc378daa952ba7f163c4a11628f55a4df523b3ef60405160405180910390a461211a600083836001611bc6565b5050565b6000808273ffffffffffffffffffffffffffffffffffffffff163b119050919050565b6000604051905090565b600080fd5b600080fd5b60007fffffffff0000000000000000000000000000000000000000000000000000000082169050919050565b61218a81612155565b811461219557600080fd5b50565b6000813590506121a781612181565b92915050565b6000602082840312156121c3576121c261214b565b5b60006121d184828501612198565b91505092915050565b60008115159050919050565b6121ef816121da565b82525050565b600060208201905061220a60008301846121e6565b92915050565b600081519050919050565b600082825260208201905092915050565b60005b8381101561224a57808201518184015260208101905061222f565b60008484015250505050565b6000601f19601f8301169050919050565b600061227282612210565b61227c818561221b565b935061228c81856020860161222c565b61229581612256565b840191505092915050565b600060208201905081810360008301526122ba8184612267565b905092915050565b6000819050919050565b6122d5816122c2565b81146122e057600080fd5b50565b6000813590506122f2816122cc565b92915050565b60006020828403121561230e5761230d61214b565b5b600061231c848285016122e3565b91505092915050565b600073ffffffffffffffffffffffffffffffffffffffff82169050919050565b600061235082612325565b9050919050565b61236081612345565b82525050565b600060208201905061237b6000830184612357565b92915050565b61238a81612345565b811461239557600080fd5b50565b6000813590506123a781612381565b92915050565b600080604083850312156123c4576123c361214b565b5b60006123d285828601612398565b92505060206123e3858286016122e3565b9150509250929050565b6123f6816122c2565b82525050565b600060208201905061241160008301846123ed565b92915050565b612420816121da565b811461242b57600080fd5b50565b60008135905061243d81612417565b92915050565b6000602082840312156124595761245861214b565b5b60006124678482850161242e565b91505092915050565b6000806000606084860312156124895761248861214b565b5b600061249786828701612398565b93505060206124a886828701612398565b92505060406124b9868287016122e3565b9150509250925092565b6000602082840312156124d9576124d861214b565b5b60006124e784828501612398565b91505092915050565b60006124fb82612325565b9050919050565b61250b816124f0565b82525050565b60006020820190506125266000830184612502565b92915050565b600080fd5b600080fd5b600080fd5b60008083601f8401126125515761255061252c565b5b8235905067ffffffffffffffff81111561256e5761256d612531565b5b60208301915083600182028301111561258a57612589612536565b5b9250929050565b600080602083850312156125a8576125a761214b565b5b600083013567ffffffffffffffff8111156125c6576125c5612150565b5b6125d28582860161253b565b92509250509250929050565b600080604083850312156125f5576125f461214b565b5b600061260385828601612398565b92505060206126148582860161242e565b9150509250929050565b600080fd5b7f4e487b7100000000000000000000000000000000000000000000000000000000600052604160045260246000fd5b61265b82612256565b810181811067ffffffffffffffff8211171561267a57612679612623565b5b80604052505050565b600061268d612141565b90506126998282612652565b919050565b600067ffffffffffffffff8211156126b9576126b8612623565b5b6126c282612256565b9050602081019050919050565b82818337600083830152505050565b60006126f16126ec8461269e565b612683565b90508281526020810184848401111561270d5761270c61261e565b5b6127188482856126cf565b509392505050565b600082601f8301126127355761273461252c565b5b81356127458482602086016126de565b91505092915050565b600080600080608085870312156127685761276761214b565b5b600061277687828801612398565b945050602061278787828801612398565b9350506040612798878288016122e3565b925050606085013567ffffffffffffffff8111156127b9576127b8612150565b5b6127c587828801612720565b91505092959194509250565b600080604083850312156127e8576127e761214b565b5b60006127f685828601612398565b925050602061280785828601612398565b9150509250929050565b7f4e487b7100000000000000000000000000000000000000000000000000000000600052602260045260246000fd5b6000600282049050600182168061285857607f821691505b60208210810361286b5761286a612811565b5b50919050565b7f4552433732313a20617070726f76616c20746f2063757272656e74206f776e6560008201527f7200000000000000000000000000000000000000000000000000000000000000602082015250565b60006128cd60218361221b565b91506128d882612871565b604082019050919050565b600060208201905081810360008301526128fc816128c0565b9050919050565b7f4552433732313a20617070726f76652063616c6c6572206973206e6f7420746f60008201527f6b656e206f776e6572206f7220617070726f76656420666f7220616c6c000000602082015250565b600061295f603d8361221b565b915061296a82612903565b604082019050919050565b6000602082019050818103600083015261298e81612952565b9050919050565b7f4552433732313a2063616c6c6572206973206e6f7420746f6b656e206f776e6560008201527f72206f7220617070726f76656400000000000000000000000000000000000000602082015250565b60006129f1602d8361221b565b91506129fc82612995565b604082019050919050565b60006020820190508181036000830152612a20816129e4565b9050919050565b600081905092915050565b50565b6000612a42600083612a27565b9150612a4d82612a32565b600082019050919050565b6000612a6382612a35565b9150819050919050565b7f7769746864726177206661696c65640000000000000000000000000000000000600082015250565b6000612aa3600f8361221b565b9150612aae82612a6d565b602082019050919050565b60006020820190508181036000830152612ad281612a96565b9050919050565b7f4552433732313a20696e76616c696420746f6b656e2049440000000000000000600082015250565b6000612b0f60188361221b565b9150612b1a82612ad9565b602082019050919050565b60006020820190508181036000830152612b3e81612b02565b9050919050565b7f4552433732313a2061646472657373207a65726f206973206e6f74206120766160008201527f6c6964206f776e65720000000000000000000000000000000000000000000000602082015250565b6000612ba160298361221b565b9150612bac82612b45565b604082019050919050565b60006020820190508181036000830152612bd081612b94565b9050919050565b600082905092915050565b60008190508160005260206000209050919050565b60006020601f8301049050919050565b600082821b905092915050565b600060088302612c447fffffffffffffffffffffffffffffffffffffffffffffffffffffffffffffffff82612c07565b612c4e8683612c07565b95508019841693508086168417925050509392505050565b6000819050919050565b6000612c8b612c86612c81846122c2565b612c66565b6122c2565b9050919050565b6000819050919050565b612ca583612c70565b612cb9612cb182612c92565b848454612c14565b825550505050565b600090565b612cce612cc1565b612cd9818484612c9c565b505050565b5b81811015612cfd57612cf2600082612cc6565b600181019050612cdf565b5050565b601f821115612d4257612d1381612be2565b612d1c84612bf7565b81016020851015612d2b578190505b612d3f612d3785612bf7565b830182612cde565b50505b505050565b600082821c905092915050565b6000612d6560001984600802612d47565b1980831691505092915050565b6000612d7e8383612d54565b9150826002028217905092915050565b612d988383612bd7565b67ffffffffffffffff811115612db157612db0612623565b5b612dbb8254612840565b612dc6828285612d01565b6000601f831160018114612df55760008415612de3578287013590505b612ded8582612d72565b865550612e55565b601f198416612e0386612be2565b60005b82811015612e2b57848901358255600182019150602085019450602081019050612e06565b86831015612e485784890135612e44601f891682612d54565b8355505b6001600288020188555050505b50505050505050565b7f6d696e74696e67206e6f7420656e61626c656400000000000000000000000000600082015250565b6000612e9460138361221b565b9150612e9f82612e5e565b602082019050919050565b60006020820190508181036000830152612ec381612e87565b9050919050565b7f4e487b7100000000000000000000000000000000000000000000000000000000600052601160045260246000fd5b6000612f04826122c2565b9150612f0f836122c2565b9250828202612f1d816122c2565b91508282048414831517612f3457612f33612eca565b5b5092915050565b7f77726f6e67206d696e742076616c756500000000000000000000000000000000600082015250565b6000612f7160108361221b565b9150612f7c82612f3b565b602082019050919050565b60006020820190508181036000830152612fa081612f64565b9050919050565b6000612fb2826122c2565b9150612fbd836122c2565b9250828201905080821115612fd557612fd4612eca565b5b92915050565b7f736f6c64206f7574000000000000000000000000000000000000000000000000600082015250565b600061301160088361221b565b915061301c82612fdb565b602082019050919050565b6000602082019050818103600083015261304081613004565b9050919050565b7f657863656564206d61782077616c6c6574000000000000000000000000000000600082015250565b600061307d60118361221b565b915061308882613047565b602082019050919050565b600060208201905081810360008301526130ac81613070565b9050919050565b60006130be826122c2565b91507fffffffffffffffffffffffffffffffffffffffffffffffffffffffffffffffff82036130f0576130ef612eca565b5b600182019050919050565b7f546f6b656e20646f6573206e6f74206578697374210000000000000000000000600082015250565b600061313160158361221b565b915061313c826130fb565b602082019050919050565b6000602082019050818103600083015261316081613124565b9050919050565b600081905092915050565b6000815461317f81612840565b6131898186613167565b945060018216600081146131a457600181146131b9576131ec565b60ff19831686528115158202860193506131ec565b6131c285612be2565b60005b838110156131e4578154818901526001820191506020810190506131c5565b838801955050505b50505092915050565b600061320082612210565b61320a8185613167565b935061321a81856020860161222c565b80840191505092915050565b7f2e6a736f6e000000000000000000000000000000000000000000000000000000600082015250565b600061325c600583613167565b915061326782613226565b600582019050919050565b600061327e8285613172565b915061328a82846131f5565b91506132958261324f565b91508190509392505050565b7f4f776e61626c653a206e6577206f776e657220697320746865207a65726f206160008201527f6464726573730000000000000000000000000000000000000000000000000000602082015250565b60006132fd60268361221b565b9150613308826132a1565b604082019050919050565b6000602082019050818103600083015261332c816132f0565b9050919050565b7f4f776e61626c653a2063616c6c6572206973206e6f7420746865206f776e6572600082015250565b600061336960208361221b565b915061337482613333565b602082019050919050565b600060208201905081810360008301526133988161335c565b9050919050565b7f4552433732313a207472616e736665722066726f6d20696e636f72726563742060008201527f6f776e6572000000000000000000000000000000000000000000000000000000602082015250565b60006133fb60258361221b565b91506134068261339f565b604082019050919050565b6000602082019050818103600083015261342a816133ee565b9050919050565b7f4552433732313a207472616e7366657220746f20746865207a65726f2061646460008201527f7265737300000000000000000000000000000000000000000000000000000000602082015250565b600061348d60248361221b565b915061349882613431565b604082019050919050565b600060208201905081810360008301526134bc81613480565b9050919050565b7f4552433732313a20617070726f766520746f2063616c6c657200000000000000600082015250565b60006134f960198361221b565b9150613504826134c3565b602082019050919050565b60006020820190508181036000830152613528816134ec565b9050919050565b7f4552433732313a207472616e7366657220746f206e6f6e20455243373231526560008201527f63656976657220696d706c656d656e7465720000000000000000000000000000602082015250565b600061358b60328361221b565b91506135968261352f565b604082019050919050565b600060208201905081810360008301526135ba8161357e565b9050919050565b7f4e487b7100000000000000000000000000000000000000000000000000000000600052601260045260246000fd5b60006135fb826122c2565b9150613606836122c2565b925082820390508181111561361e5761361d612eca565b5b92915050565b600081519050919050565b600082825260208201905092915050565b600061364b82613624565b613655818561362f565b935061366581856020860161222c565b61366e81612256565b840191505092915050565b600060808201905061368e6000830187612357565b61369b6020830186612357565b6136a860408301856123ed565b81810360608301526136ba8184613640565b905095945050505050565b6000815190506136d481612181565b92915050565b6000602082840312156136f0576136ef61214b565b5b60006136fe848285016136c5565b91505092915050565b7f4552433732313a206d696e7420746f20746865207a65726f2061646472657373600082015250565b600061373d60208361221b565b915061374882613707565b602082019050919050565b6000602082019050818103600083015261376c81613730565b9050919050565b7f4552433732313a20746f6b656e20616c7265616479206d696e74656400000000600082015250565b60006137a9601c8361221b565b91506137b482613773565b602082019050919050565b600060208201905081810360008301526137d88161379c565b905091905056fea2646970667358221220e16694901faa2338e3f928c102eaac5123e0e7d04974811ee0d304644af0054b64736f6c63430008110033",
    "linkReferences": {},
    "deployedLinkReferences": {}
}